:020000040800F2
:10000000E80C0020ED01000871490008C145000816
:100010006D490008450A0008295B0008000000003F
:10002000000000000000000000000000C94B0008B4
:10003000290D00080000000075490008CD4B00089C
:10004000070200080702000807020008070200086C
:10005000070200080702000807020008070200085C
:10006000070200080702000807020008110D000837
:100070001D0D00080702000807020008070200081B
:10008000070200080000000007020008070200083D
:1000900007020008410D0008070200082D0D0008A6
:1000A000070200080702000807020008070200080C
:1000B000E54B000807020008F14B000807020008A2
:1000C00007020008070200080702000807020008EC
:1000D00007020008115B00081D5B0008070200080A
:1000E00007020008070200080702000807020008CC
:1000F00007020008070200080702000800000000CD
:1001000000000000070200080000000007020008CD
:1001100007020008000000000702000807020008AC
:10012000070200080702000807020008070200088B
:10013000070200080000000000000000070200089D
:10014000070200080702000800000000000000008D
:10015000000000000000000000000000000000009F
:10016000000000000000000000000000070200087E
:10017000070200080000000000000000000000006E
:10018000000000000702000800000000000000005E
:10019000000000000000000000000000000000005F
:1001A000000000000000000007020008070200082D
:1001B000070200080702000807020008000000000C
:1001C000000000000702000800000000000000001E
:1001D0000702000807020008DFF80CD000F05AFA06
:1001E00000480047A5630008E80C00200648804747
:1001F00006480047FEE7FEE7FEE7FEE7FEE7FEE70C
:10020000FEE7FEE7FEE7FEE7D14B0008D901000854
:100210002DE9F05F0546002092469B46884606463B
:10022000814640241BE0284641464746224600F0CE
:1002300069F853465A46C01A914110D311461846E0
:10024000224600F050F82D1A67EB01084F4622466F
:100250000120002100F047F817EB00094E41201E55
:10026000A4F10104DFDC484631462A464346BDE896
:10027000F09F40EA01039B0703D009E008C9121F61
:1002800008C0042AFAD203E011F8013B00F8013B50
:10029000521EF9D27047D2B201E000F8012B491E7C
:1002A000FBD270470022F6E710B513460A46044613
:1002B0001946FFF7F0FF204610BD30B50B4601464A
:1002C00000202022012409E021FA02F59D4205D3F5
:1002D00003FA02F5491B04FA02F52844151EA2F19F
:1002E0000102F1DC30BD202A04DB203A00FA02F1E1
:1002F000002070479140C2F1200320FA03F3194314
:1003000090407047202A04DB203A21FA02F00021B5
:10031000704721FA02F3D040C2F120029140084315
:10032000194670472DE9FE4F804681EA0300C00F51
:100330000C46009021F0004123F00045B8EB02008C
:10034000A94105D24046214690461C460B4602462E
:1003500023F00040104347D0270DC7F30A00C3F332
:100360000A510290401A019040286BDAC3F313003F
:1003700040F4801B0098924620B10023D2EB030A80
:1003800063EB0B0B01985946C0F140025046FFF752
:10039000AAFF06460D4650465946019A00F092F9CA
:1003A00010EB08006141002487EA115284EAE773E8
:1003B0001A4340D0009A62B3019A012A4FEA0752C9
:1003C00015DC001B61EB02014FF0004202EA07520C
:1003D000CDE90042001C41F5801132462B4600F069
:1003E00092F903B0BDE8F08F40462146F9E7001BC3
:1003F00061EB0201001C41F5801300185B412018DD
:10040000A2F5001747EB030140EAD570B6196D411C
:1004100011E06D084FEA360645EAC0754FEA07520B
:10042000001B61EB0201001C41F5801149084FEAF5
:1004300030000019514132462B4603B0BDE8F04F61
:1004400000F052B90098012240000023D0EB0202D4
:1004500063EBE073009821464FEAE074B8EB0000CC
:1004600061EB0401E9E783F000435BE781F00041C1
:1004700058E72DE9FE4F81EA030404F0004421F01F
:10048000004100944FF0000B23F0004350EA0104B8
:100490005ED052EA03045BD0C3F30A54C1F30A5599
:1004A0002C44A4F2F3340194A0FB0254C1F31301D1
:1004B00041F48011C3F3130343F4801301FB02449E
:1004C00000FB034E840A970A44EA815447EA8357A3
:1004D000A4FB076802958D0A05FB07854FEA932C5C
:1004E00004FB0C542705029D4FEA065847EA1637CD
:1004F000B5EB08056EEB070C870E920E47EA8117E5
:1005000042EA8312A7FB0201B6EB0B0164EB000485
:100510002B0D43EA0C335E1844EB1C50DA4651466F
:10052000E7FB0201C5F313044FEA0B3343EA14530C
:100530004FEA0432019C43EA0603A4F10C0402943E
:10054000009CCDE900B400F0DEF803B0BDE8F08F08
:1005500000200146F9E72DE9F04D81EA030404F09B
:10056000004B21F0004514464FF0000A23F00041F3
:1005700050EA050220D054EA01021DD0C5F30A5703
:100580000246C5F31303C1F31300C1F30A5640F446
:10059000801543F48013A7EB0608101BD64608F21B
:1005A000FD3873EB050002D308F1010801E0921851
:1005B0005B41B8F1000F03DA00200146BDE8F08D81
:1005C00000204FF48011064684460EE0171B73EBA3
:1005D000050705D3121B63EB050306434CEA010C28
:1005E00049084FEA300092185B4150EA0107EDD10B
:1005F00052EA030012D082EA040083EA05010843AC
:1006000005D0101BAB4106D20122002306E00022D8
:100610004FF0004302E06FF0010253101AEB0600A6
:100620004CEB085110EB0A0041EB0B01BDE8F04D1B
:1006300000F05AB8C1F30A52C1F3130140F2FF337C
:1006400041F480119A4202DA00200146704740F2DC
:1006500033439A42A2F2334202DC5242FFF752BEC7
:10066000FFF741BE30B5041E71F1000404DB4FF00A
:100670000044404264EB0101141E73F1000405DBE9
:100680001C464FF00043524263EB0403994208BFFB
:10069000904230BD1CB509480090094801900546BC
:1006A000009C06E0E06840F0010394E807009847EA
:1006B0001034AC42F6D3FFF793FD0000FC94000821
:1006C0001C950008202A06DBCB17203A41FA02F0DD
:1006D00043EAE07306E041FA02F3D040C2F120029F
:1006E000914008431946704710B5141E73F1000479
:1006F00008DA401C41F1000192185B411A4301D114
:1007000020F0010010BD2DE9F04D92469B4611B13D
:10071000B1FA81F202E0B0FA80F220329046FFF79F
:10072000E2FD04460F4640EA0A0041EA0B01534647
:100730005A46084313D0114653EA010019D0C8F1B4
:1007400040025046FFF7DEFD05460E46504659462C
:100750004246FFF7C8FD084305D0012004E02046CB
:100760003946BDE8F08D0020054346EAE0762C438B
:1007700037430A986305E40AA0EB08000022FD0A4B
:1007800044EA47540A3002D500200146E9E7010552
:1007900010196941DDE9084500196941BDE8F04DCE
:1007A000A2E70000B0B582B000250DF107048DF876
:1007B00006508DF8075000BFFF2D0DD800202146B0
:1007C000013500F0C1F8012000F02AFD9DF8070076
:1007D0002428F1D1002400E001247C20002100F035
:1007E000E1F8012000F01CFD5920002100F0DAF8AA
:1007F00047F2CC41C0F600015E204FF4005200F0F9
:10080000F5F85920012100F0CDF80A2000F008FD8C
:100810000DF10601212000F097F89DF80600062151
:1008200000284FF07D0008BF012400F0BBF84020F5
:10083000EC2100F0B7F84220AC2100F0B3F84120E1
:10084000032100F0AFF84320002100F0ABF8204670
:1008500002B0B0BD70B582B00646002014460D4609
:10086000CDF80300009069461220062200F032F80D
:10087000BDF80000BDF804103080BDF802002880EB
:10088000218002B070BD000080B584B000200390CC
:10089000CDE9010001A90C200C2200F01BF818B1D1
:1008A0004FF0FF3004B080BDBDF8040040F20411E9
:1008B000C2F200018884DDF80600DDF80A20C1F8E4
:1008C0002600BDF80E00C1F82A20C885002004B01B
:1008D00080BD0000F0B587B00D46002140F08000DB
:1008E00014460691CDE90411CDE902118DF80700F7
:1008F0004FF090404FF40041002201F093F940F294
:100900007026C2F200060DF10701304601224FF0B9
:10091000FF3302F087FA601C02AF82B230463946DC
:100920004FF0FF3302F056F94FF090404FF4004182
:10093000012201F077F9791C28462246FFF799FC3D
:10094000002007B0F0BD0000B0B582B040F08000DC
:100950008DF8070000200C46ADF804004FF09040E1
:100960004FF40041002201F05DF940F27025C2F21F
:1009700000050DF1070128460122642302F052FA16
:1009800001A928460222642302F024F94FF0904086
:100990004FF40041012201F045F99DF80500207057
:1009A00002B0B0BD80B582B000F07F008DF80600C7
:1009B0008DF807104FF090404FF40041002201F0F5
:1009C00031F940F27020C2F200000DF1060102225E
:1009D0004FF0FF3302F026FA4FF090404FF4004101
:1009E000012201F01FF902B080BD000070B582B095
:1009F00000F07F0014460D468DF807004FF0904040
:100A00004FF40041002201F00DF940F27026C2F2CD
:100A100000060DF10701304601224FF0FF3302F0CE
:100A200001FA3046294622464FF0FF3302F0FAF928
:100A30004FF090404FF40041012201F0F3F802B072
:100A400070BD0000FEE700007047000011B30B46C8
:100A5000A2F1090111F1080F1CD340F22001C2F2EA
:100A6000000141F8200F4FF080404FF0000C0822A9
:100A7000C1E9010C40F20C20C1E9032CC2F20000D4
:100A80001A46C1E905CCC1F81CC0C1F820C000F06D
:100A900061BC00BF01207047B0B52DED0E8BB0EEEC
:100AA00040CA20EEA0DA20EE000A30EE0D0A21EE58
:100AB00001EAB0EE42AA3EEE000A22EE022A21EE40
:100AC000A14AB1EEC00A34EE022A22EEA24A34EE66
:100AD000022AB1EEC22AB0EE438ABFEE003A40F2DB
:100AE0005415C2F20005002204462888B0EE629A2E
:100AF000B0EE61BA30EE030A9FED4C3AB0EEC00A98
:100B00000021B4EE432AF1EE10FAB8BF421CB4EE55
:100B1000430AB0EE600AF0EE410AF1EE10FAA8BF07
:100B20000A462A8005F0D6FE3DEE0E1AF1EEC10A05
:100B30009FED3FEA20EE0EDAB1EE4C0A05F0CAFE58
:100B400095ED011A95ED022A95ED033A3BEE414AE7
:100B50003AEE425A94ED002A39EE431A24EE083A4E
:100B600033EE022A94ED013A288825EE084A20EE59
:100B70000E0A332834EE033A1AD3323804EE100A40
:100B80009FED2D5AB8EEC44A84EE054AB7EE005ADE
:100B90009FED286A34EE054A24EE064AB6EE005A66
:100BA000B4EE454AF1EE10FAB8BFB0EE454A01E0A6
:100BB0009FED204AB7EE005A35EE445A2DEE056AF5
:100BC00024EE022A32EE062A84ED002A20EE050ADF
:100BD00024EE032A32EE000A84ED010A94ED020AA3
:100BE00021EE081A31EE000A84ED020A94ED021A91
:100BF0009FED122A94ED020AB4EE421AF1EE10FAB9
:100C000002DD9FED111A0AE09FED0D1AB4EE410AC4
:100C1000F1EE10FA07DA94ED020A9FED0A1A30EEAF
:100C2000010A84ED020ABDEC0E8BB0BDCDCCCC3DEB
:100C3000333365428FC2753F0000C8C200003443A1
:100C4000000034C30000B4430000B4C32DE9F047F2
:100C50002DED068B82B0044640F25419C2F2000911
:100C60000020C9E90100C9F80C009CB39FED278A58
:100C70000D4600270DF106080DF1040A0DF10206DC
:100C8000B0EE489AB0EE48AA404651463246FFF7C9
:100C9000E1FDBDF9060000EE100ABDF90400B8EE52
:100CA000C00A3AEE00AA00EE100ABDF90200B8EE42
:100CB000C00A39EE009A00EE100AB8EEC00A2846C3
:100CC00038EE008A00F0ACFA0137B8B2A042DBD3AC
:100CD00006E000BF9FED0DAAB0EE4A9AB0EE4A8A38
:100CE00000EE104AB8EE400A8AEE001A89EE002A99
:100CF00088EE000A89ED011A89ED022A89ED030ABE
:100D000002B0BDEC068BBDE8F08700BF000000001C
:100D100040F2A400C2F2000000F022B940F2AC1090
:100D2000C2F2000000F01CB970470000402000F043
:100D30009DBE0000EFF3108072B600BFFEE700001A
:100D400040F20C20C2F2000000F01CBC80B540F262
:100D50000C20C2F2000000F065FE002818BFFFF76B
:100D6000E9FF40F20C20C2F200000121402200F015
:100D70006BFA002808BF80BDBDE88040FFF7DABFEE
:100D8000014690F82500022828D180B50868D1E9ED
:100D900010CE8A6C036823F00E030360136823F4FB
:100DA00080731360026822F0010202600EF01F00DF
:100DB000012202FA00F0CCF80400D1E913205060BF
:100DC000486D30B1026822F480720260D1E91602E7
:100DD00042600020BDE8804003E000BF0420C863FB
:100DE0000120012281F82520002281F8242070476B
:100DF00090F82510022931D180B50168D0E910CED4
:100E0000826C0B6823F00E030B600B6823F0010368
:100E10000B60116821F4807111600EF01F02012136
:100E200001FA02F2CCF80420D0E913325A60426D84
:100E300032B1136823F480731360D0E91623536032
:100E400080F82510826B002180F824100AB19047A9
:100E50000021BDE880400846704700BF0421C163FF
:100E60000121002280F8251080F8242008467047D0
:100E700000284FF0010C04BF012070472DE9F04F0E
:100E800040F20443D0E9002EC4F202034FF6F831D9
:100E90001C1DCBF6FD71A24238BF01F580614CF6F6
:100EA000CD451144CCF6CC45A1FB051B02F0FC015D
:100EB000A1F10801A1FB0519116840F2000840F6F4
:100EC000200A21F00101C4F20208C4F2020A1160F2
:100ED00008F580616FF003073CBF0021C4F20201F6
:100EE000554607EA9B071C26A24238BF03F57F75CB
:100EF000C0E91017002106EA9B0611600CFA06F6FD
:100F0000A24207EB050238BF08F104031E608264A9
:100F10000AF16002C264C9F304120CFA02F3AEF1E2
:100F20000102032A03657951CAF8643008D8012701
:100F30000AEB820307FA02F2C3F8E010CAF8242190
:100F4000C0E91511C165C0E90B11C0E90D11C163FC
:100F500080F8251080F82410BDE8F04F084670474F
:100F6000B0B5D0E910C30268DCF8001003F01F032D
:100F70000424D2F800E09C400C4218BF1EF0040587
:100F800022D102249C400C4218BF1EF0020529D138
:100F9000D940090724D51EF0080108BFB0BD11686B
:100FA00021F00E011160012101FA03F2CCF80420B6
:100FB000C16380F82510416B002280F8242079B1AC
:100FC000BDE8B040084700BF1168890603D4116826
:100FD00021F004011160CCF80440016B0029EFD12D
:100FE000B0BD00BF1168890606D4116821F00A015E
:100FF0001160012180F82510CCF80440C16A00225C
:10100000002980F82420DBD1EAE7000000284FF017
:10101000010100F08E802DE9F04740F2000CC4F28F
:10102000020C03684FF6F8320CF5816ECBF6FD72B8
:10103000734538BF02F580624CF6CD441A44CCF6B5
:10104000CC44A2FB042803F0FC02A2F10802A2FB9C
:1010500004290CF580656FF00304D0E90262D0F832
:1010600010A03CBF0025C4F2020504EA9804C0E9C0
:101070001054022580F825501D6847F6F07725EAC0
:1010800007073A43476942EA0A0285693A43C76952
:101090002A43056A3A432A4332431A600CF5026236
:1010A000734538BF0CF50062A3180CF50862C264E2
:1010B000C9F3041240F6840C01FA02F2B6F5804F2F
:1010C000C4F2020C8364026506D1002141601960FC
:1010D000CCF800201EE000BF41685FFA81FE0139B4
:1010E00003294FF00001C3F800E0CCF8002011D82C
:1010F000AEF101020CEB820747F87C1F02F01F01E2
:10110000012202FA01F30CF1BC023946CCF8C030DE
:1011100002E000BF0022002300F1540C8CE80E0016
:1011200000210122C16380F8252080F82410BDE849
:10113000F04708467047000090F824C0BCF1010F4A
:1011400047D04FF0010C80F824C090F825C0BCF1C6
:10115000010F3BD12DE9F0414FF0020C80F825C082
:101160004FF0000CC0F83CC0D0F800C000F14C0EAD
:101170009EE83040DCF80060BEF1000F26F001066A
:10118000CCF8006065601CBFD0E916456560D0E909
:101190001056012706F01F06846807FA06F6D0F8F5
:1011A00030806E60CCF804300B46102C04BF134620
:1011B0000A46CCF80830CCF80C20DCF80010B8F166
:1011C000000F09D041F00E010EE000BF002180F8B1
:1011D00024100220704700BF21F00401CCF8001059
:1011E000DCF8001041F00A01CCF80010806C0168B6
:1011F000C90303D5016841F480710160BEF1000F9D
:1012000005D0DEF8000040F48070CEF80000DCF875
:10121000000040F00100CCF800000020BDE8F081A3
:10122000B0B5044600F004FD054640F20800C2F2E5
:1012300000004068611C18BF044400BF00F0F8FCC7
:10124000401BA042FAD3B0BD10B590F85C30013B12
:10125000012B69D800685FEA417ED0F858C00CF0D5
:10126000010300D01BB311F0380F02D01CF00204B0
:101270001DD011F4E07F02D01CF0040417D011F44B
:10128000F05F02D01CF0080411D011F4604F02D0BE
:101290001CF010040BD011F4403F02D01CF02004CD
:1012A00005D011F47C0F06D01CF0400403D1C46DAE
:1012B00044F00104C465BEF1000F18BF002B3BD100
:1012C00011F0380F18BF1CF0020335D111F4E07F84
:1012D00018BF1CF004032FD111F4F05F18BF1CF0ED
:1012E000080329D111F4604F18BF1CF0100323D15B
:1012F00011F4403F18BF1CF020031DD111F47C0FE6
:1013000018BF1CF0400317D10B061BD4CB0504D526
:10131000D0F8E0301A43C0F8E02000F15402002079
:1013200013681943116010BD00F160020120022111
:1013300013681943116010BDC36D43F00203C36508
:101340000B06E3D5D0F8DC301343C0F8DC30CB0516
:10135000DED4E2E790F85C30022B17D12DE9F041A2
:101360000668D6F8C4309B0216D4D6F8C430D1E94A
:101370000075D1F808E00C69C3F3014CA5B144EA4B
:10138000070343EA0E0343F0804E11E0016E41F083
:101390000801016601207047016E41F40071016689
:1013A0000120BDE8F08100BF44EA87434EEA030E06
:1013B000D1E90757D1E9058445EA0765CB682C4395
:1013C000456D44EA08040CEBCC0744EA034405EB02
:1013D000C70345F837E05C60CF6887B149F2CC4578
:1013E000083303320024C0F6000500BF171957F870
:1013F000037C1F51CF680434EF5DBC42F6D301215A
:1014000001FA0CF1C6F8CC1081650020BDE8F0812E
:1014100070470000704700002DE9F04390F85C70C1
:10142000022F1BD1D0F800C040291FD1DCF89070EA
:101430003F0700F09D80DCF89070FF0146BFDCF8AC
:101440008070C7F340270027DCF89060C6F30126C0
:1014500006EB070C00F148071DE000BF016E41F0EC
:10146000080101660120BDE8F08300BFDCF8987038
:101470003F077DD0DCF89870FF0146BFDCF8807034
:10148000C7F300270027DCF89860C6F3012606EBB7
:10149000070C00F14C073F680CEBCC0657F83650B0
:1014A00007EBC60E15F08045556057F8365025F00D
:1014B000604408BFC5F38A44146057F8365005F0FD
:1014C0000055956057F8364004F000441461BEF8AA
:1014D0000440D461BEF8064014F00F04D460DEF876
:1014E000044004F480145461DEF8044004F4001451
:1014F00094619EF8074004F07F041462DEF8044013
:101500004FEAD474546228D049F2CC480024C0F683
:10151000000800BF0EEB0406377A651C1F55D7681C
:1015200018F80770BD4218D2757A1F197D70D568FA
:1015300018F80590A51C4D450FD2B57ABD70D56839
:1015400018F80590E51C4D4507D2F57A0434FD7076
:10155000D56818F80550AC42DCD3006840290CBFB0
:10156000C0F894C0C0F89CC00020BDE8F08300BF64
:10157000016E41F4807101660120BDE8F083000036
:10158000704700002DE9F04F85B004460068016DFA
:10159000426DD0F850B0456D076D466D036D01EAA0
:1015A00002080493436D0393036D0293436D01930B
:1015B000D0F854A0D0F850905FEA496307D51AF0EC
:1015C000400104D0402101652046FFF7D9FF0BEA16
:1015D000050B5FEAC95008F4E0550ED51AF4807087
:1015E0000BD02068D0F8D810D0F8E02011404FF48C
:1015F00080720265204600F02FFA37400BF0070694
:101600002DB1206829460565204600F029FA07F02B
:1016100038052EB1206831460665204600F0E4F911
:101620002DB1206829460565204600F0F9F95FEAEA
:10163000895009D51AF4007006D020684FF4007163
:101640000165204600F00EFA5FEA09600DD51AF038
:1016500080000AD02068D0F8D410D0F8DC201140E7
:1016600080220265204600F0F9F95FEA894009D539
:101670001AF4005006D020684FF40051016520464E
:1016800000F0E8F95FEA0940DDE9011000EA010530
:1016900009D51AF4004006D020684FF400410165D6
:1016A000204600F0D5F9DDE9031008405FEA494122
:1016B00005F460210AD51AF4804207D022684FF45D
:1016C00080431365226E42F08002226600F47105A9
:1016D00021B1206801652046FFF79CFE25B12068F6
:1016E0000565206E28432066206E28B1204605B08F
:1016F000BDE8F04FFFF78CBE05B0BDE8F08F0000ED
:10170000002804BF0120704770B5044690F85C00C3
:1017100028B9002084F85D00204600F017F9206801
:10172000816921F01001816100F082FA054600BF55
:1017300020688169090705D500F07AFA401B0B285B
:10174000F6D310E0816941F00101816100F070FA87
:10175000054600BF21688869C0070DD100F068FA0E
:10176000401B0B28F6D3206E032140F001002066B9
:10177000012084F85C1070BD4AF200408A69C4F20E
:101780000000A0F5804342F0020299428A6105D12F
:1017900062684CF20013CFF6FF73C250227C8B6953
:1017A000012A23F0400318BF40338B61627C8B69B0
:1017B000012A23F4804308BF03F580438B61A27C98
:1017C0008B69012A23F4805318BF03F580538B6182
:1017D0008D69D4E902E325F4407545EA0E058D6173
:1017E0008D6925F0A4058D610D6925F010050D6149
:1017F000A3B1012B0ED0022B09D08D69032B45F02C
:1018000080058D610D6945F010050D6106D120231D
:1018100001E000BF04238D692B438B61D4E90535BA
:10182000D4E907266FF0FF0C013D0CEB022242EADF
:101830004562751E2A430025CFF6FF7505EB03436D
:101840001A43BEF5407FCA6110D1D4E909E3D4E957
:101850000B62013B0CEB062633436FF00F0606EBE1
:1018600002121A4305EB0E431A43CA6004F1340610
:101870004CCED1F8C0502E43C1F8C0602064D1F8DE
:1018800080604AF2704526F4F816C4F2000546EA74
:101890000242C1F880206564D1F8802022F0706295
:1018A00042EA0362C1F8802005F14001A16405F518
:1018B0008C71E16405F5F871216505F502716165CA
:1018C000002105F5037200BFC0E90011C0E9021153
:1018D000C0E90411C0E90611C0E90811C0E90A1104
:1018E000C0E90C11C0E90E11C0E91011C0E91211D4
:1018F000C0E91411C0E91611C0E91811C0E91A11A4
:10190000C0E91C11C0E91E11C0E92011C0E9221173
:10191000C0E92411C0E92611C0E92811C0E92A1143
:10192000C0E92C11C0E92E11C0E93011C0E9321113
:10193000C0F8D010904200F1D400C5D3002001219E
:10194000A065206684F85C1070BD000010B596B0EC
:101950000446684604304021FEF7A4FC206846F2A5
:101960000041C4F20001884202D016B010BD00BF91
:101970004FF4805000904FF000700C90684600F0DB
:10198000ADFA002818BFFFF7D5F941F24C00C4F2B8
:101990000200C16841F00071C160C16801F00071CE
:1019A00011911199016841F001010160006811A9CC
:1019B00000F00100119011984FF4C05011900220D6
:1019C00012900020CDE91300092015904FF09040AF
:1019D00000F058F815200221002200F0A5F915208A
:1019E00000F090F916B010BDC90708BF704710B5D8
:1019F00040F22004C2F2000404F1440240212346D4
:101A0000FFF70AFD606C012308212374E060217256
:101A100021460822E374BDE81040FFF715B8000026
:101A20007047000090F85C1001290BD1022180F86A
:101A30005C1001688A6922F001028A610021016656
:101A400008467047016E41F00401016601207047AD
:101A500070470000704700007047000070470000AA
:101A600070470000704700007047000040F21441CA
:101A7000C4F201010A68024214BF08607047FFF710
:101A8000F3BF00002DE9F04F82B00D68002D00F08B
:101A9000C58000F13847860546EA972741F200469F
:101AA000C4F60006062240F2004EB04208BF0522EE
:101AB000C4F2010E052F38BF3A464FF0000C012446
:101AC00000270026009209E00D68013635FA06F27B
:101AD00007F102070CF1040C00F0A08004FA06FBE9
:101AE00015EA0B08F0D0D1F804A003230AF003058F
:101AF0006A1EBB40012A6FEA03090FD88268CB68CF
:101B000002EA0902BB401A4382604268CAF300132A
:101B100022EA0B02B3401A43426003E0032D01D1D5
:101B200003251FE0C2688B6802EA0902BB401A4322
:101B3000022DC26016D16FF0030202EA560202447F
:101B40000CF01C050F23D2F820A003FA05FB0B694B
:101B50002AEA0B0AAB4043EA0A031362D1F804A055
:101B60000AF00305026805FA07F302EA09021A43BC
:101B70001AF4403F0260A7D041F26003C4F20203AE
:101B80001A684FF6084A42F001021A601A68CFF646
:101B9000FF7A02F001020192019A26F003027244D8
:101BA00052F80A900CF00C050F23009CAB4029EA78
:101BB000030304FA05F52B4342F80A30DEF8082047
:101BC0004B6842EA080540F20C49DC0258BF22EAA1
:101BD0000805CEF80850C4F20109D9F800209D028A
:101BE00042EA080458BF22EA0804C9F80040DEF8B7
:101BF00004209D0342EA080458BF22EA0804CEF8F4
:101C00000440DEF80020DB0342EA080458BF22EA61
:101C10000804CEF80040012456E700BF02B0BDE83A
:101C2000F08F00001823002A08BF2823C1507047F6
:101C300040F2E040C2F200000068704740F2080045
:101C400040F2E041C2F20000C2F2000140680A68BE
:101C5000104408607047000080B5032000F090F841
:101C6000072000F009F800281CBF012080BD00F00B
:101C700029F8002080BD000070B540F20806C2F2CD
:101C800000067168E1B1044640F21000C2F20000A3
:101C90004FF47A720068B2FBF1F1B0FBF1F001F0A1
:101CA00069FB0F2C4FF0010508D838B94FF0FF3011
:101CB00021460022002500F037F83460284670BD28
:101CC000012070BD80B582B041F25800C4F202001C
:101CD000816841F001018160816801F00101019199
:101CE0000199016841F080510160006800F0805066
:101CF00000900098042000F043F802B0BDE8804056
:101D000000F0E2B8002848BF704700F01F01012230
:101D100002FA01F11C2202EAD0004EF20012CEF2C9
:101D2000000281507047000010B54EF60C5CCEF2F8
:101D3000000CDCF80030C3F3022E8EF00704042CF4
:101D400028BF0424BEF103034FF0FF3E0EFA04F453
:101D500038BF0023A14399400EFA03F39A4311437D
:101D600000F00F0200F160430901043A03F56443F7
:101D70006244002848BF02F10C03197010BD000036
:101D80004EF60C51CEF200010A684FF6FF031A40DE
:101D900060F30A2242F0806040F0FD7008607047F6
:101DA000B0F5007F42D0002840F0808047F2140058
:101DB000C4F2000050F8141CC26E01F4C06122F499
:101DC0008072B1F5806FC2662ED150F8141C0122CA
:101DD00062F34A2140F8141C40F21001C2F20001E3
:101DE0000968322251434DF68362C4F21B32A1FBD3
:101DF0000212910C0268520511D54A1C0FD00268DC
:101E000052050CD559B10268520508D5012906D0F2
:101E10000268520503D50229A1F10401EAD1006844
:101E2000400544BF032070470020704747F214006C
:101E3000C4F2000050F8141CC26E01F4C06142F4F8
:101E40008072B1F5806FC266EED150F8141C012289
:101E500062F34A2140F8141C40F21001C2F2000162
:101E60000968322251434DF68362C4F21B32A1FB52
:101E70000212910C0268520511D54A1C0FD002685B
:101E800052050CD559B10268520508D5012906D072
:101E90000268520503D50229A1F10401EAD10068C4
:101EA000400544BF03207047BEE700BF47F214005F
:101EB000C4F2000050F8141C022262F34A2140F8D8
:101EC000141C00207047000047F20800C4F2000014
:101ED000016841F480410160704700002DE9F04144
:101EE00082B00446807841F288060007C4F20206F8
:101EF00002D400202FE000BF56F8300C5FEAC00883
:101F00000BD456F8300C40F0805046F8300C56F8A0
:101F1000300C00F080500190019847F20007C4F2A5
:101F20000007386840F480703860FFF781FE05468E
:101F30003868C00500F1D680FFF77AFE401B022802
:101F4000F6D90320B8F1000F05D456F8301C21F063
:101F5000805146F8301C2168CA0713D18A0719D46A
:101F60004A071FD40A0725D48A062BD44A0631D43F
:101F70000A0637D4CA053DD48A0543D44A0549D454
:101F800057E000BF3268636822F003021A433260F0
:101F90008A07E5D53268A36822F00C021A43326042
:101FA0004A07DFD53268E36822F030021A43326014
:101FB0000A07D9D53268236922F0C0021A43326079
:101FC0008A06D3D53268636922F440621A433260CC
:101FD0004A06CDD53268A36922F440521A433260D2
:101FE0000A06C7D53268E36922F440421A433260D8
:101FF000CA05C1D53268236A22F440321A433260DE
:102000008A05BBD53268636A22F440221A433260E3
:102010004A050ED53268A36A22F440121A43B3F57A
:10202000801F326005D156F87C2C42F4801246F8AD
:102030007C2C0A050ED53268E36A22F440021A436A
:10204000B3F5800F326005D156F87C2C42F4801233
:1020500046F87C2CCA040ED53268236B22F04072FD
:102060001A43B3F1807F326005D156F87C2C42F4DC
:10207000801246F87C2C8A040ED53268636B22F0FD
:1020800040621A43B3F1006F326005D156F87C2CE0
:1020900042F4801246F87C2C4A040ED53268A36BB9
:1020A00022F040621A43B3F1006F326005D156F856
:1020B0007C2C42F4801246F87C2C09040ED5316841
:1020C000E26B21F040511143B2F1805F316005D1E4
:1020D00056F87C1C41F4803146F87C1C02B0BDE807
:1020E000F08100BFB06810F4407010D0216C8842BD
:1020F0000BD0B068B16820F4407041F48031B16019
:10210000B16821F48031B160B060C0070CD1B06813
:10211000216C20F440700843B0600020B8F1000F3B
:102120003FF519AF11E700BFFFF782FD054641F209
:10213000883700BFB0688007E9D4FFF779FD401BFE
:10214000B842F7D9FDE600002DE9F047002865D038
:1021500042F2000AC4F2020A0446DAF800000D4610
:1021600000F00F0088420CD2DAF8000020F00F00D7
:102170002843CAF80000DAF8000000F00F00A84277
:102180004CD1216841F20808C807C4F2020803D103
:10219000880740F1D480B9E0606802283AD003286B
:1021A00040D158F8082C920138D5D8F80420D8F836
:1021B000043042F20046C3F3031302F00302D8F8DE
:1021C00004700133C0F2F406032A04BF41F2002672
:1021D000C0F27A06B6FBF3F2D8F80430C7F306274C
:1021E0007A43C3F34163022707EB4303B2FBF3F2E5
:1021F0004BF20043C0F2C4439A425DD9D8F80020A4
:1022000012F0F00F4DD0890756D5A168002953D19F
:1022100047E000BF58F8081C890307D40120BDE837
:10222000F08700BF58F8081C4905F7D5D8F800100A
:1022300001F00C0104293FD0D8F8001001F00C0186
:10224000082939D0D8F8001001F00C010C2933D13D
:10225000D8F80410D8F8042042F20047C2F3031261
:1022600001F00301D8F804300132C0F2F407032969
:1022700004BF41F20027C0F27A07B7FBF2F1D8F8A9
:102280000420C3F306235943C2F34162022303EB44
:102290004202B1FBF2F14BF20042C0F2C442914261
:1022A0000AD9D8F80010082262F307114FF001098B
:1022B000C8F8001002E000BF4FF00009D8F8001085
:1022C00021F003010843C8F80000FFF7B1FC0646FF
:1022D00041F28837D8F80000616800F00C00B0EBDC
:1022E000810F07D0FFF7A4FC801BB842F2D903206E
:1022F000BDE8F0872168880708D4B9F1000F1ED027
:10230000D8F8000020F0F00017E000BF480705D51E
:10231000D8F8000040F4E060C8F80000080706D5CF
:10232000D8F80000072262F30D20C8F80000D8F8A2
:102330000000A26820F0F0001043C8F80000DAF8AE
:10234000000000F00F00A8421BD9DAF8000020F0CE
:102350000F002843CAF80000FFF76AFC064641F266
:10236000883700BFDAF8000000F00F00A84207D05D
:10237000FFF75EFC801BB842F4D90320BDE8F0876C
:102380002168480707D5D8F80000E26820F4E0602B
:102390001043C8F80000080708D5D8F800002169E4
:1023A00020F4605040EAC100C8F80000D8F80000EE
:1023B00042F20041C0F2F40100F00C00042808468B
:1023C0002DD0D8F8000000F00C00082841F20020C1
:1023D000C0F27A0023D0D8F8002002F00C020C2AB8
:1023E0001CD1D8F80420D8F8043002F00302C3F35B
:1023F0000313D8F804700133032A08BF0146B1FB68
:10240000F3F0D8F80410C7F30627C1F341610222A4
:10241000784302EB4101B0FBF1F000E00020D8F876
:10242000001047F29C42C1F30311C0F60002515C58
:1024300040F2100201F01F0120FA01F140F2080001
:10244000C2F200000068C2F200021160BDE8F0476D
:10245000FFF712BC40F2100041F20801C2F2000086
:10246000C4F202010068096847F2AC42C1F30221DC
:10247000C0F60002515C01F01F01C8407047000027
:1024800040F2100041F20801C2F20000C4F2020161
:102490000068096847F2AC42C1F3C221C0F60002ED
:1024A000515C01F01F01C8407047000041F20C016F
:1024B000C4F2020151F8040C42F20042C0F2F402EC
:1024C00000F00C000428104608BF704751F8040CB7
:1024D00000F00C00082841F20020C0F27A0025D05C
:1024E00051F8043C03F00C030C2B1CBF0020704778
:1024F00080B5D1F800C00B680CF0030CC3F3031EC9
:102500000B680EF1010EBCF1030F08BF024609680B
:10251000B2FBFEF0C3F30623C1F34161022258432C
:1025200002EB4101B0FBF1F0BDE8804070470000D4
:10253000002804BF012070472DE9F04182B0044615
:10254000007841F20006C007C4F202061ED12078CE
:1025500080073DD42078000764D42078400700F13C
:1025600087802078800600F1D980E569002D00F091
:102570004482B06800F00C000C2840F03181012D3D
:1025800040F09081012002B0BDE8F081B06800F019
:102590000C01F068082961D0032281F00C0122EAC5
:1025A00000000844B0FA80F0400957D16068B0F5E7
:1025B000803F07D0B0F5A02F40F0E480306840F4B1
:1025C00080203060306840F480303060E5E000BF4B
:1025D000B068F16800F00C00042871D001F003012C
:1025E00080F00C0081F002010844B0FA80F040094C
:1025F00066D1E1683068002900F0E08040F4807026
:102600003060FFF715FB05463068400500F10A8190
:10261000FFF70EFB401B0228F6D9032002B0BDE8ED
:10262000F08100BF6169D6F89400002900F0948021
:1026300040F00100C6F89400FFF7FAFA054600BF23
:10264000D6F8940080073FF588AFFFF7F1FA401BFA
:102650000228F5D9032002B0BDE8F081306880037C
:102660007FF575AF606800287FF471AF3EE000BF72
:10267000B06D5FEAC00808D4B06D40F08050B0651E
:10268000B06D00F080500190019847F20007C4F24D
:1026900000073868C0052DD4386840F48070386071
:1026A000FFF7C6FA054600BF3868C00522D4FFF719
:1026B000BFFA401B0228F7D9032002B0BDE8F08121
:1026C0003068400501D5E06880B17068216920F06C
:1026D000FE4040EA0160706040F20800C2F2000073
:1026E0000068FFF7C9FA00283FF434AF012002B0B8
:1026F000BDE8F081A068012808D0052840F0B0802E
:10270000D6F8900040F00400C6F89000D6F890008B
:1027100040F00100C6F89000B0E000BFA169D6F813
:102720009800002900F0868040F00100C6F898006B
:10273000FFF77EFA054600BFD6F8980080073FF500
:1027400014AFFFF775FA401B02284FF00300F3D9CE
:1027500002B0BDE8F08100BF20F00100C6F894008F
:10276000FFF766FA054600BFD6F8940080077FF5AC
:10277000F4AEFFF75DFA401B0228F5D9032002B042
:10278000BDE8F0813168002821F480313160316882
:1027900021F48021316000F0BF80FFF749FA05463F
:1027A000306880033FF5D3AEFFF742FA401B642840
:1027B000F6D9032002B0BDE8F08100BF20F480709C
:1027C0003060FFF735FA0546306840057FF5C2AE48
:1027D000FFF72EFA401B02284FF00300F4D9B7E7A9
:1027E000306820F080703060FFF722FA022D054635
:1027F0000CD100BF3068800140F1BA80FFF718FAB1
:10280000401B02284FF00300F4D9A1E73068800193
:1028100040F1EC80FFF70CFA401B02284FF0030058
:10282000F4D995E77068216920F0FE4040EA016024
:1028300070608FE620F00100C6F89800FFF7F8F905
:10284000054600BFD6F8980080077FF58EAEFFF7EB
:10285000EFF9401B02284FF00300F3D978E700BFDF
:10286000D6F89010002821F00101C6F89010D6F893
:10287000901021F00401C6F890105DD0FFF7D8F950
:10288000054641F2883700BFD6F89000800765D42E
:10289000FFF7CEF9401BB842F6D9032002B0BDE8DD
:1028A000F08100BFF068216A00F003028A427FF4E1
:1028B0001DAF626A6FF00F0300F0F00103EB02122C
:1028C00091427FF413AFA16A00F4FE42B2EB012FF4
:1028D0007FF40CAFE16A00F07842B2EBC16F7FF495
:1028E00005AF226B0023CFF6E07303EA025200F437
:1028F000C001A2F5001291427FF4F8AE616B4FF077
:102900007E4202EA016100F0C06001F17E4188422E
:102910007FF4ECAE71E000BFFFF78AF9054600BF17
:10292000306880037FF513AEFFF782F9401B6428FF
:102930004FF00300F4D90BE7FFF77AF9054641F2AF
:10294000883700BFD6F89000800707D5FFF770F9E9
:10295000401BB8424FF00300F4D9F9E6B8F1000F7C
:102960003FF5FFADB06D20F08050B065F9E500BFD8
:10297000F06848F20C01C0F29F1104F1200700EA50
:10298000010C8ECF6FF00F00D4E90C5400EB021055
:102990000022CFF6E07241EA0C0102EA0552084338
:1029A000A2F500124FF07E4540EA032005EA0465D7
:1029B000104305F17E4540EAC7602843F060306867
:1029C00040F080703060F06840F08070F060FFF799
:1029D0002FF90446306880010FD4FFF729F9001B56
:1029E00002284FF00300F5D9B2E600BFF0684FF6B9
:1029F000FC71CFF6EE610840F060002002B0BDE847
:102A0000F0810000F0B581B0F0B10446D0F8880044
:102A10001E4615460F4628B9002084F8840020463B
:102A200001F096FC2420C4F888002068A16A02689E
:102A300022F00102026011B1204602F09FF9204607
:102A400002F0DAFC012803D1012001B0F0BD00BF83
:102A50002168886840F480408860886820F40040DD
:102A6000384388600A68300440EA45506FF31942E1
:102A700010430860086840F0010220460A6001B077
:102A8000BDE8F04002F0F0B9002804BF0120704713
:102A9000B0B50446406A28B10020206104F114005A
:102AA00006E000BF6068B0F5827F03D004F11C002F
:102AB000002101600025A56294F85D0020B9204640
:102AC00084F85C5000F052F8022084F85D00206821
:102AD000D4F80CE00268BEF5E06F22F0400202601C
:102AE0004EF4006298BF0125B2F5706F1CBF002341
:102AF000A3624FEA053CD4E90135D4E9042103F48B
:102B0000827305F404452B4402F002021A44A369BF
:102B100001F00101E569114403F40072114405F06C
:102B20003802256A114405F08002A56A114405F4B3
:102B30000052114301600421626A0EF4706501EADB
:102B40001341636B45EA0C0502F01002294303F0C0
:102B50000803114319434160C16921F40061C16157
:102B600000200121206684F85D10B0BD006843F6A6
:102B70000041C4F20001884218BF704780B586B09A
:102B800041F24C00C4F20200C16841F40041C1604E
:102B9000C16801F4004101910199016841F002010D
:102BA0000160006801A900F002000190019838203E
:102BB0000190022002900020CDE90300062005903C
:102BC00040F20040C4F60000FEF75CFF06B0BDE82E
:102BD000804070472DE9F04182B0044690F85D00D6
:102BE000012818D10E4600294FF0010000F016818F
:102BF0001746002A00F0128160681D46B0F5827FFA
:102C000003D1A068002800F0DD80FFF711F894F8E8
:102C10005C10012904D1022002B0BDE8F08100BFA0
:102C20008046012084F85C00042084F85D000020C8
:102C300020662664A4F84470A4F84670A063A087B8
:102C4000E0872168C4E91300D4E902204B68B0F59D
:102C5000E06F23F4805398BF03F58053B2F5004F23
:102C60004B6041D00A68520649D5B4F84610B0F519
:102C7000E06F4DD8002900F08880681C0FD11FE05C
:102C8000007B216C0870206C01302064B4F8460091
:102C90000138A4F84600B4F84600002875D0206832
:102CA0008168C907ECD1FEF7C3FFA0EB0800A8427A
:102CB000F1D348E0FEF7BCFFB4F84600002864D02A
:102CC00020688168C907F5D0007B216C0870206CF2
:102CD00001302064B4F846000138A4F84600B4F886
:102CE00046000028ECD150E00A6822F040020A6059
:102CF0000A6822F480420A600A685206B5D40A685B
:102D000042F040020A60B4F84610B0F5E06FB1D965
:102D1000D9B3681C0DD126E0C068216C21F8020BE4
:102D20002164B4F846000138A4F84600B4F846001F
:102D300058B320688168C907EED1FEF779FFA0EB90
:102D40000800A842F2D3012084F85D00002084F836
:102D50005C00032002B0BDE8F08100BFFEF768FF11
:102D6000B4F8460088B120688168C907F6D0C06809
:102D7000216C21F8020B2164B4F846000138A4F854
:102D80004600B4F846000028EDD16068B0F5827FB7
:102D90000BD1A068B0F5004F02D0B0F5806F04D120
:102DA0002068016821F04001016020462946424622
:102DB00001F0A2FEA0B1206E40F02000206620208D
:102DC000206621E0042084F85D002046314632462A
:102DD0003B46009500F050F902B0BDE8F08100BF1D
:102DE0006068B0F5827F0FD1A068B0F5004F02D0C7
:102DF000B0F5806F08D120464FF4C0612A464346A3
:102E000001F0BAFD0028D6D1012084F85D00002031
:102E100084F85C00206E002818BF012002B0BDE8D5
:102E2000F08100002DE9F04182B01D4616460F46A4
:102E30000446FEF7FDFE94F85D1001290ED1804690
:102E4000002F4FF0010018BF002E03D102B0BDE8E3
:102E5000F08100BF94F85C00012803D1022002B089
:102E6000BDE8F081012084F85C000320002184F893
:102E70005D002166A763A687E6872164A4F8441055
:102E8000A4F84610A068E164B0F5004F2068216501
:102E900007D1016821F040010160016841F48041DF
:102EA00001600168490603D4016841F040010160F6
:102EB0006168731EE268B1FA81F1B3FA83F34909DC
:102EC0005B09B2F5E06F41EA030143D931B137F84C
:102ED000021BC160A763E08F0138E087E08F002804
:102EE00076D0681C0BD124E0A16B31F8022BC260B4
:102EF000A163E08F0138E087E08F002868D0206868
:102F000081688907F0D4FEF793FEA0EB0800A84281
:102F1000F2D3012084F85D00002084F85C000320D7
:102F200002B0BDE8F08100BFFEF782FEE08F00280E
:102F30004ED0206881688907F6D5A16B31F8022B45
:102F4000C260A163E08F0138E087E08F0028F0D1F4
:102F50003EE000BF89B1E18F02294FF6FE7103D335
:102F600037F8022BC26004E03A7801310273A06B9B
:102F7000471CA763E08F0844E087E08F40B3681CDC
:102F80005FD04FF6FE70461C08E000BFFEF750FE13
:102F9000A0EB0800A842BCD2E08FC8B121688868C5
:102FA0008007F3D5E28FA06B022A05D330F8022BFD
:102FB000CA604FF6FE7104E000780873A06B3146DA
:102FC0000130A063E08F0844E087E08F0028E5D15E
:102FD00020464FF4C0512A46434601F0CDFC68B963
:102FE00020462946424601F087FD38B920464FF475
:102FF000C0612A46434601F0BFFC28B1206E40F074
:103000002000206620202066A06838B900200190AA
:103010002068C1680191806801900198012084F8BE
:103020005D00002084F85C00206E002818BF01209D
:1030300002B0BDE8F08100BFFEF7FAFDE08F002886
:10304000C6D0206881688907F6D5E28FA16B012A76
:1030500008D931F8022BC260A163E08F0238E08703
:10306000ECE700BF09780173A06B0130A063E08F2B
:103070000138E087E2E700002DE9F04381B01E4609
:1030800015460F460446FEF7D3FD94F85D108146C1
:10309000012909D1002F4FF0010018BF002D0FD1D9
:1030A00001B0BDE8F08300BF6068B0F5827F0DD14C
:1030B00004294FF00200F3D1A1680029EAD0EFE71C
:1030C000002EEDD094F85C00012803D1022001B05D
:1030D000BDE8F083012084F85C0094F85D000428CA
:1030E0001CBF052084F85D00002020662564A4F83C
:1030F0004660A4F84460A763E687C4E9130020682B
:10310000A687E1684268B1F5E06F22F48052134669
:1031100098BF03F58053012E88BF134643600268B1
:10312000520603D4026842F0400202606268731ED5
:10313000B2FA82F2B3FA83F3DDF8208052095B0918
:10314000B1F5E06F43EA02016CD931B137F8021BE7
:10315000C160A763E08F0138E087012518F1010005
:1031600035D101E0FEF764FDE08F20B9B4F84600E8
:10317000002800F0CD802068816889070CD5E18F98
:1031800051B1012D08D1A16B002531F8022BC2608D
:10319000A163E18F0139E1878168C907E2D0B4F802
:1031A00046100029DED0C068216C012521F8020BF1
:1031B0002164B4F846000138A4F84600D2E700BF05
:1031C000FEF736FDA0EB0900404580F09780E08FC8
:1031D00020B9B4F84600002800F09A802068816881
:1031E00089070CD5E18F51B1012D08D1A16B0025C4
:1031F00031F8022BC260A163E18F0139E187816858
:10320000C907DDD0B4F846100029D9D0C068216CB8
:10321000012521F8020B2164B4F846000138A4F816
:103220004600CDE789B1E18F02294FF6FE7103D345
:1032300037F8022BC26004E03A7801310273A06BC8
:10324000471CA763E08F0844E087012608F10105C9
:10325000E08F18B9B4F84600002859D0206881687A
:10326000890719D5E18FB9B1012E15D1E28FA16B74
:10327000022A07D331F8022BC260A163E18F023921
:1032800008E000BF09780173A16B20680131A163D8
:10329000E18F01390026E1878168C90726D0B4F89B
:1032A000461019B3B4F84610022913D3C168226C32
:1032B00022F8021B2264B4F846100239A4F8461022
:1032C000B4F84610012910D8416841F4805141609A
:1032D0000BE000BF007B216C0870206C0130206483
:1032E000B4F846000138A4F846000126FEF7A0FC19
:1032F000002DADD0A0EB09004045A9D3012084F8F2
:103300005D00002084F85C00032001B0BDE8F0837C
:1033100020464FF4C05142464B4601F02DFB68B9A0
:10332000204641464A4601F0E7FB38B920464FF4B3
:10333000C06142464B4601F01FFB68B1206E40F071
:103340002000206620202066002084F85C000120F8
:1033500001B0BDE8F08300BF012084F85D000020CB
:1033600084F85C00206E002818BF012001B0BDE881
:10337000F0830000411E0020B0EB116F1CBF012044
:1033800070474EF21002CEF2000251604EF6235109
:10339000CEF20001F0230B7007219060116070479E
:1033A0007047000070470000704700007047000041
:1033B000704700007047000090F83C20012A4FF051
:1033C00002024AD070B580F83D20026843F2004CFA
:1033D00054689368C4F2010C42F6004E6245C4F290
:1033E000010E01D0724503D14D6824F470042C43C2
:1033F0004FF68F75CFF6FF550E682C4042F6FF351D
:10340000C4F201053443AA4254600FDCB2F1804F8C
:1034100016D040F20046C4F20006B24210D040F688
:103420000006C4F20006B2420AD00EE0724507D090
:1034300044F20006C4F20106B24201D0624504D152
:10344000896823F08003194391600121002280F8EC
:103450003D1080F83C20BDE87040104670470000E9
:1034600070470000002804BF0120704710B50446D3
:1034700090F83D0028B9002084F83C00204600F078
:1034800023F8022084F83D002068211D01F0CCFBC8
:10349000012084F8480084F83E0084F83F0084F856
:1034A000400084F8410084F8420084F8430084F826
:1034B000440084F8450084F8460084F8470084F806
:1034C0003D00002010BD000010B582B0006840F63D
:1034D0000001C4F20001884214D0B0F1804F2BD11A
:1034E00041F25800C4F202000168012241F00101DA
:1034F00001600068002100F00100019001981C208B
:103500001C2410E041F25800C4F2020001680022BD
:1035100041F0040101600068002100F00400009007
:1035200000981E201E24FEF7FFFB204602B0BDE8D7
:103530001040FEF7E7BB00BF02B010BD90F83D1091
:1035400001291DD1022180F83D10016842F6FF32A9
:10355000C868C4F20102914240F00100C86011DC69
:10356000B1F1804F20D040F20040C4F2000081420F
:103570001AD040F60000C4F20000814214D020E0CE
:103580000120704742F60040C4F2010081420BD096
:1035900044F20000C4F20100814205D043F2004031
:1035A000C4F2010081420CD188680722C0F20102F6
:1035B0000240062A4FF00000E3D0B2F5803F08BF7A
:1035C0007047086840F00100086000207047000064
:1035D00090F83C20012A4FF0020200F0AC8080B548
:1035E00080F83D20D0F800C08822DCF80830CFF603
:1035F000CE721A40CCF808200B686F2B10DD1F220A
:10360000C0F21002934237DCB3F5005F46DA702B4C
:1036100000F09480B3F5805F00F08480D8E000BFB4
:103620002F2B35DD4F2B3FDC302B6FD0402B40F064
:10363000CF80D1F804E0C968DCF82030DCF8202025
:1036400022F00102CCF82020DCF8182022F0F00251
:1036500042EA011123F00A0242EA0E02CCF81810E5
:10366000CCF82020DCF808104FF68872CFF6CF7225
:103670001140473154E000BF3F21C0F210018B429E
:103680003ADC2021C0F210018B423FD0302139E0DA
:10369000E3B3102B3AD0202B38D099E062D0B3F1AD
:1036A000101F33D094E000BF502B6FD0602B40F040
:1036B0008F80D1F804E0C968DCF82030DCF82020E5
:1036C00022F01002CCF82020DCF8182022F47042FE
:1036D00042EA013123F0A00242EA0E12CCF818109F
:1036E000CCF82020DCF808104FF68872CFF6CF72A5
:1036F0001140673114E000BF4021C0F210018B423D
:1037000004D07021C0F210018B4261D1DCF80810A6
:103710004FF68872CFF6CF721140194341F007017E
:10372000CCF808100022012180F83D10002180F81B
:103730003C10BDE880401046704700BFD1E901E36E
:10374000C968DCF8082043EA0E0322F47F4243EA0A
:1037500001211143CCF80810DCF8081041F0770182
:10376000DEE700BFD1E901E3C968DCF8082043EADD
:103770000E0322F47F4243EA01211143CCF80810E2
:10378000DCF8081041F48041CAE700BFD1F804E03A
:10379000C968DCF82030DCF8202022F00102CCF8E7
:1037A0002020DCF8182022F0F00242EA011123F078
:1037B0000A0242EA0E02CCF81810CCF82020DCF8FD
:1037C00008104FF68872CFF6CF7211405731A7E735
:1037D0000122A8E770470000F0B581B004460068F8
:1037E000C5680669B10717D515F0020114D06FF04E
:1037F00002010161012121778069800704D0204600
:10380000FFF7E8FF06E000BF204600F0CBF82046B7
:1038100000F0CAF800202077700719D515F00400D1
:1038200016D020686FF004010161022121778069C0
:1038300010F4407F04D02046FFF7CCFF06E000BF25
:10384000204600F0AFF8204600F0AEF800202077C8
:10385000300717D515F0080014D020686FF0080164
:10386000016104212177C069800703D02046FFF75A
:10387000B1FF05E0204600F095F8204600F094F8EE
:1038800000202077F00619D515F0100016D020681A
:103890006FF01001016108212177C06910F4407FA9
:1038A00004D02046FFF796FF06E000BF204600F058
:1038B00079F8204600F078F800202077F00718BF4C
:1038C00015F0010006D020686FF00101016120466B
:1038D00000F06CF816F4025F05F0800718BF002FA7
:1038E00002D1F00509D410E020686FF402510161A3
:1038F0002046FFF757FDF00507D537B120686FF474
:10390000807101612046FFF74BFD700609D515F067
:10391000400006D020686FF040010161204600F0B1
:1039200055F8B00609D515F0200006D020686FF0D4
:10393000200101612046FFF737FDF00209D515F49B
:10394000801006D020686FF4801101612046FFF7D7
:103950002FFDB00209D515F4001006D020686FF4D1
:10396000001101612046FFF721FD700209D515F411
:10397000800006D020686FF4800101612046FFF7C7
:1039800019FD30020CD515F4000009D021686FF440
:10399000000220460A6101B0BDE8F040FFF760BDBB
:1039A00001B0F0BD70470000704700000068B0F142
:1039B000804F18BF704780B5FEF73AF940F2A41166
:1039C000C2F200010860BDE8804070477047000007
:1039D00090F88410012904BF022070472421C0F808
:1039E000881002681168136823F00103136021F046
:1039F00000530021416613602022C0F8882080F81F
:103A0000841008467047000010B50446D0F88C00BA
:103A100020281CBF022010BD00294FF0010018BF54
:103A2000002A01D110BD00BFE066002020672046BB
:103A300001F02EFE0028F5D1E06E01281CBF012008
:103A400010BD206810210162206850E8000F216835
:103A500040F0100041E8000202B3206850E8000F77
:103A6000216840F0100041E80002BAB1206850E837
:103A7000000F216840F0100041E8000272B1206898
:103A800050E8000F216840F0100041E80002002AD1
:103A90004FF0000008BF10BDD6E700BF002010BDEA
:103AA00040F26C32C2F20002904218BF704710B56B
:103AB00040F28C04C2F2000440F26C30218004F128
:103AC0000801C2F200000E22FFF79EFFD4E901C1F7
:103AD00040F29440C2F20000C0F81710A18AD4E965
:103AE0000323A0F823100121C0F81B20C0F81F30C9
:103AF00080F828100CF101006060BDE810407047AC
:103B00007047000090F88420012A04BF022070470B
:103B1000B0B52422C0F888200268D0F864E0D2F85A
:103B200000C01368BEF1000F23F001031360936817
:103B300023F0606341EA0301916019D093689168B2
:103B400049F2EC4E490FC0F6000E49F2F4451EF85A
:103B50000140C0F60005695CC3F34263E400B4FBB6
:103B6000F1F11EF80340EB5CE500B5FBF3F301E077
:103B700001210123A0F86A102021A0F86830C2F8C2
:103B800000C0C0F88810002180F88410BDE8B04063
:103B90000846704790F88420012A04BF022070472D
:103BA000B0B52422C0F888200268D0F864E0D2F8CA
:103BB00000C01368BEF1000F23F001031360936887
:103BC00023F0604341EA0301916019D09368916842
:103BD00049F2EC4E490FC0F6000E49F2F4451EF8CA
:103BE0000140C0F60005695CC3F34263E400B4FB26
:103BF000F1F11EF80340EB5CE500B5FBF3F301E0E7
:103C000001210123A0F86A102021A0F86830C2F831
:103C100000C0C0F88810002180F88410BDE8B040D2
:103C2000084670477047000070470000B0B5016853
:103C3000044611A002F02AFE206843F60001C4F2F7
:103C40000101884218BFB0BD40F28C05C2F20005E8
:103C500005F118042046FDF70BF92046FDF7D6F9CB
:103C600040F26C3005F10801C2F200000E22BDE8FE
:103C7000B040FFF7C9BE00BF554152542045727293
:103C80006F722120496E7374616E63653A202570EE
:103C90000D0A000070B5016840F62F03CA6904469A
:103CA00008688E681340202B0CD100F0200306F02A
:103CB00080555B1917D0616F69B32046BDE870402D
:103CC000084700BF40F60F031A420CD00123C1F28F
:103CD000000306EA030C40F22013C0F20043034045
:103CE00013EB0C0328D1E36ED50615D5012B13D1A8
:103CF00010F0100310D0102008628868400627D406
:103D0000B4F85C00B4F85E10B4F85E20002A18BF66
:103D1000884240F0518270BDD30240F1D98016F440
:103D2000800300F0D5804FF4801220460A62BDE87F
:103D30007040FFF779BF00BFD30718BF10F480733E
:103D400040F01E81930706F0010E00F125812EE15F
:103D5000D4F8800000684268B4F85C3091B2002961
:103D600000F0F480994280F0F180A4F85E200068B1
:103D7000800600F1A08000BF206850E8000F216895
:103D800020F4807041E80002E2B1206850E8000FA2
:103D9000216820F4807041E800029AB1206850E860
:103DA000000F216820F4807041E8000252B12068C1
:103DB00050E8000F216820F4807041E80002002ADA
:103DC000DAD100BF206850E8020F216820F001001E
:103DD00041E80202BAB3206850E8020F216820F0DF
:103DE000010041E8020272B3206850E8020F216826
:103DF00020F0010041E802022AB3206850E8020FD7
:103E0000216820F0010041E80202002ADAD11AE01C
:103E1000206850E8020F216820F0400041E80202CB
:103E2000DAB1206850E8020F216820F0400041E834
:103E3000020292B1206850E8020F216820F0400091
:103E400041E802024AB1206850E8020F216820F0E0
:103E5000400041E80202002ADAD12020C4F88C0098
:103E60000020E066206850E8000F216820F0100074
:103E700041E80002DAB1206850E8000F216820F024
:103E8000100041E8000292B1206850E8000F21685C
:103E900020F0100041E800024AB1206850E8000F0D
:103EA000216820F0100041E80002002ADAD1D4F89D
:103EB0008000FCF765FF02202067B4F85C00B4F8CE
:103EC0005E10401A81B22046BDE87040FFF7E8BDA1
:103ED000110606D500F0800106F40003C91840F071
:103EE000ED81510640D510F040013DD0206850E8EA
:103EF000000F216820F0400041E80002DAB120689C
:103F000050E8000F216820F0400041E8000292B123
:103F1000206850E8000F216820F0400041E80002CE
:103F20004AB1206850E8000F216820F0400041E8C5
:103F30000002002ADAD120200021C4F8880020469F
:103F4000A167BDE8704000F02BBB00BF8B427FF43F
:103F5000E2AE006880067FF5DEAE022220462267D0
:103F6000BDE87040FFF79CBD110240F1B38110F035
:103F7000804100F0AF812046BDE87040FFF752BE9F
:103F800001230B62D4F8903043F00103C4F8903061
:103F9000930706F0010E0AD5BEF1000F07D00223E9
:103FA0000B62D4F8903043F00403C4F89030530708
:103FB0000AD5BEF1000F07D004230B62D4F890306D
:103FC00043F00203C4F8903013070CD500F020032F
:103FD00053EA0C0307D008230B62D4F8903043F067
:103FE0000803C4F8903013050BD510F0806308D097
:103FF0004FF400630B62D4F8903043F02003C4F810
:104000009030D4F89030002B3FF485AE92060AD55C
:1040100000F0200006F08052801804D0626F12B1C8
:10402000204690472168D4F89000896800F0280065
:1040300001F04001401807D12046FFF7F7FD0020AE
:10404000C4F8900070BD00BF206850E8000F2168E0
:1040500020F4907041E80002DAB1206850E8000FC7
:10406000216820F4907041E8000292B1206850E885
:10407000000F216820F4907041E800024AB12068E6
:1040800050E8000F216820F4907041E80002002AF7
:10409000DAD14FF6FE70CEF6FF7000BF216851E80E
:1040A000021F2268014042E80213C3B1216851E8AF
:1040B000021F2268014042E8021383B1216851E8DF
:1040C000021F2268014042E8021343B1216851E80F
:1040D000021F2268014042E80213002BDED1E06E8D
:1040E000012824D1206850E8000F216820F010003A
:1040F00041E80002DAB1206850E8000F216820F0A2
:10410000100041E8000292B1206850E8000F2168D9
:1041100020F0100041E800024AB1206850E8000F8A
:10412000216820F0100041E80002002ADAD12020A6
:10413000C4F88C000020E06621686067886840064B
:1041400040F1C280206850E8020F216820F0400052
:1041500041E80202DAB1206850E8020F216820F03D
:10416000400041E8020292B1206850E8020F216845
:1041700020F0400041E802024AB1206850E8020FF6
:10418000216820F0400041E80202002ADAD1D4F888
:104190008000002800F0988044F6D971C0F6000134
:1041A0008163FCF725FE00283FF4B5ADD4F880000C
:1041B000816BBDE870400847401A00BF216851E894
:1041C000001F226821F4907142E80013DBB12168DE
:1041D00051E8001F226821F4907142E8001393B166
:1041E000216851E8001F226821F4907142E8001311
:1041F0004BB1216851E8001F226821F4907142E818
:104200000013002BDAD14FF6FE71CEF6FF7100BF1E
:10421000226852E8022F23680A4043E80226C6B10A
:10422000226852E8022F23680A4043E8022686B13A
:10423000226852E8022F23680A4043E8022646B16A
:10424000226852E8022F23680A4043E80226002E23
:10425000DED12021C4F88C100021E166616700BF27
:10426000216851E8001F226821F0100142E8001384
:10427000DBB1216851E8001F226821F0100142E8FB
:10428000001393B1216851E8001F226821F010014A
:1042900042E800134BB1216851E8001F226821F069
:1042A000100142E80013002BDAD1022281B220462D
:1042B0002267BDE87040FFF7F3BB00BFA16F002984
:1042C0007FF4FBAC27E500BF2046BDE87040FFF758
:1042D000ADBC00BFD1017FF51EADB0F1FF3FC8BF3F
:1042E00070BD2046BDE87040FFF70ABC10B5D0B1E4
:1042F0000446D0F8880028B9002084F884002046BD
:1043000000F026F82420C4F888002068A16A02681A
:1043100022F00102026011B1204600F02FFD20467C
:1043200001F06AF810B1012010BD00BF2168486893
:1043300020F490404860886820F02A00886008686F
:1043400040F0010220460A60BDE8104000F08CBD3C
:104350002DE9F04198B0044600201790CDE91500F2
:10436000CDE9130002A84421FBF79CFF206844F22A
:104370000041C4F2000188426ED043F60001C4F24D
:104380000101884240F09D800120029002A8FDF7C3
:10439000A5FD002818BFFCF7CDFC41F24C00C4F28B
:1043A0000200416940F2080841F4804141614169DD
:1043B000002601F48041019101990168C4F20208CC
:1043C00041F001010160006813A900F001000190B3
:1043D00001984FF4C06013900220149007201790AA
:1043E0004FF09040CDE91566FDF74CFB40F28C058F
:1043F000C2F20005284640F8188F18218027202295
:10440000C0E90116C0E90367C0E90566C0E90726EF
:10441000FCF7FCFD002818BFFCF78CFC05F1180028
:104420002C6440F2AC15C4F8800008F11400C2F20C
:1044300000051921102285E8C7002846C5E9056650
:10444000C5E90766FCF7E2FD002818BFFCF772FC1F
:10445000E567AC6225242CE0022402A80294FDF753
:104460003DFD002818BFFCF765FC41F24C00C4F28A
:104470000200C16841F40031C160C16801F400313B
:1044800001910199016841F001010160006813A9DF
:1044900000F00100019001980E20CDE913040020E6
:1044A000CDE91500072017904FF09040FDF7EAFA8C
:1044B0002624204601210022FDF736FC2046FDF788
:1044C00021FC18B0BDE8F081704700007047000083
:1044D000B0B50446D0F8880020281CBF0220B0BD2B
:1044E00000294FF0010059D0002A134608BFB0BD83
:1044F000002221202165A4F85430A4F85630C4F8D5
:104500009020C4F88800E06FF0B144F6E575C0F67D
:1045100000054563256845F2413C45F2F13EC0F691
:10452000000CC0F6000E826305F12802C0E90BCE34
:10453000FCF702FE40B11020C4F890002020C4F81F
:1045400088000120B0BD00BF20684021016200BF8B
:10455000206850E8020F216840F0800041E8020224
:10456000DAB1206850E8020F216840F0800041E88D
:10457000020292B1206850E8020F216840F08000EA
:1045800041E802024AB1206850E8020F216840F079
:10459000800041E80202002ADAD10020B0BD00000C
:1045A00040F20041C2F20001884218BF704740F259
:1045B000A810C2F20000002101707047704700008F
:1045C000FEE7000080B582B041F24800C4F202006C
:1045D0000168012241F004010160016801F0040159
:1045E00001910199016841F0010101600068012118
:1045F00000F00100009000980B20FDF795FB0B20C8
:10460000FDF780FB0C2001210022FDF78DFB0C2023
:1046100002B0BDE88040FDF775BB000080B540F2F8
:104620000C2046F20041C2F20000C4F20001012257
:10463000002380E80E0014214FF0050E00F114074E
:104640004FF00A0C87E8065000F1240EC360C0F852
:104650000F308EE80610C0E90C22C0E90E33FDF7DA
:104660004FF8002808BF80BDBDE88040FCF762BB62
:10467000B0B586B0002541F24C000595C4F20200A9
:104680000168002241F020010160016801F0200171
:1046900000910099016841F001010160016801F099
:1046A000010100910099016841F002010160006878
:1046B0004FF4807100F00200009000984FF090409D
:1046C000FDF7B0FA4FF090404FF400410122012471
:1046D000FDF7A8FA4FF4014001A931C101AC4FF038
:1046E000904021460495FDF7CDF9402001904FF40C
:1046F0008810CDE9020540F20040C4F600002146D2
:10470000FDF7C0F9172000210022FDF70DFB17204F
:10471000FDF7F8FA06B0B0BD10B540F2702043F6D0
:104720000041C2F20000C4F200014FF48272002383
:104730004FF4E06C4FF4007E302480E80E10072127
:10474000C0E90433C0E906E4C0E90833C0E90A312E
:10475000C0E90C33FEF798F9002808BF10BDBDE88A
:104760001040FCF7E7BA000080B588B040F2D420D2
:104770000021C2F2000041F2873C0791CDE905110A
:1047800002914FF0804243F67F63C0E9021C016151
:104790008021C0E900238161FEF764FE002818BF74
:1047A000FCF7C8FA4FF48050049040F2D420C2F2D3
:1047B000000004A9FEF70CFF002818BFFCF7BAFAA6
:1047C00000200190039040F2D420C2F2000001A921
:1047D000FEF7F2FD002818BFFCF7ACFA08B080BD68
:1047E00080B588B040F220300021C2F2000040F6CF
:1047F000000241F2873C0791CDE905110291C4F214
:1048000000029F23C0E9021C01618021C0E900234E
:104810008161FEF727FE002818BFFCF78BFA4FF4E2
:104820008050049040F22030C2F2000004A9FEF74C
:10483000CFFE002818BFFCF77DFA002001900390FE
:1048400040F22030C2F2000001A9FEF7B5FD0028B9
:1048500018BFFCF76FFA08B080BD000080B540F2C9
:104860006C3043F60001C2F20000C4F201010023E3
:104870004FF00C0C4FF4964280E80E00C0E9033371
:10488000C0E905C3C0E90733C0E90933FFF72EFDCE
:10489000002818BFFCF74EFA40F26C30C2F200005C
:1048A0000021FFF777F9002818BFFCF743FA40F220
:1048B0006C30C2F200000021FFF724F9002818BF75
:1048C000FCF738FA40F26C30C2F20000FFF780F8D3
:1048D000002808BF80BDBDE88040FCF72BBA00006F
:1048E00080B540F2004044F200414EF26032C2F224
:1048F0000000C4F20001C0F2160200234FF00C0CBD
:1049000080E80E0000210022C0E90333C0E905C39E
:10491000C0E90733C0E90933FEF774F8002818BF6F
:10492000FCF708FA40F20040C2F200000021FFF755
:1049300031F9002818BFFCF7FDF940F20040C2F23F
:1049400000000021FFF7DEF8002818BFFCF7F2F99D
:1049500040F20040C2F20000FFF73AF8002808BF1A
:1049600080BDBDE88040FCF7E5B90000FEE700002F
:10497000FEE70000704700002DE9F04782B00026F6
:104980001F4690460D4681468DF80360FDF750F9AD
:10499000381A00EB0807FDF74BF940F21001C2F29C
:1049A0000001096823225143090DD9F800407943D9
:1049B0000191A168294235D0824618F1010035D015
:1049C000B5F5C06F1AD100BF207B8DF803009DF8AC
:1049D0000300FDF72DF9A0EB0A00B8425ED2019862
:1049E00001990028A1F101010191D9F8001089680D
:1049F00008BF074611F4C06FE6D112E0FDF718F9C1
:104A0000A0EB0A00B84249D2019801990028A1F10F
:104A100001010191D9F80010896808BF07462942B1
:104A2000ECD10026304602B0BDE8F0870026B5F58F
:104A3000C06F25D1207B8DF803009DF80300A0688E
:104A400010F4C06FEDD0207B8DF803009DF80300BB
:104A5000A06810F4C06FE4D0207B8DF803009DF8AF
:104A60000300A06810F4C06FDBD0207B8DF803003A
:104A70009DF80300A06810F4C06FDBD1D2E700BF3F
:104A8000A0682842CDD0A0682842CAD0A068284299
:104A9000C7D0A0682842F3D1C4E700BFD9E900011C
:104AA0004268B1F5827F22F0E00242600BD1D9F872
:104AB0000810B1F5004F02D0B1F5806F03D1016845
:104AC00021F040010160D9F82810B1F5005F07D14D
:104AD000016821F400510160016841F40051016056
:104AE000012089F85D00002089F85C00032630462B
:104AF00002B0BDE8F0870000F0B581B015460E4663
:104B00000446FDF795F8281A8719FDF791F840F249
:104B10001001C2F200010968C1F3CB317943009161
:104B200021688A68120622D50546701C15D000BF80
:104B3000FDF77EF8401BB8421CD20098009900286F
:104B4000A1F1010100912168896808BF07460806A4
:104B5000EED40CE08868000609D58868000606D502
:104B60008868000644BF88685FEA0060F2D40020CD
:104B700001B0F0BDD4E900014268B1F5827F22F0B6
:104B8000E00242600AD1A168B1F5004F02D0B1F550
:104B9000806F03D1016821F040010160A16AB1F585
:104BA000005F07D1016821F400510160016841F400
:104BB00000510160012084F85D00002084F85C0051
:104BC000032001B0F0BD000070470000FDF736B8CB
:104BD0004EF68850CEF20000016841F47001016089
:104BE0007047000040F2D420C2F20000FEF7F4BD8E
:104BF00010B540F2C844C2F20004207840B140F23F
:104C00002030C2F20000BDE81040FEF7E5BD00BF55
:104C1000FBF73AFE0120207040F22030C2F2000083
:104C2000BDE81040FEF7D8BD40F2FF7C0268C4F238
:104C3000000C604522DD40F60003C4F200039842F8
:104C400025D043F20043C4F2010398421FD042F63C
:104C50000043C4F20103984219D043F2FF33C4F277
:104C6000010398421DDC60452ADCB0F1804F3DD045
:104C700040F20043C4F2000336E000BFB0F1804FC1
:104C800005D040F20043C4F200039842E5D14B68DE
:104C900022F070021A4343F2FF33C4F20103984238
:104CA000E1DD44F2FF33C4F20103984212DC43F227
:104CB0000043C4F20103984218D044F2000311E00B
:104CC00040F60003C4F2000398420FD042F60043BE
:104CD00008E000BF44F60003C4F20103984205D087
:104CE00044F20043C4F20103984203D1CB6822F49A
:104CF00040721A4380B54B6922F0800E8A6843EAFD
:104D00000E03D1F800C00360C262A0F18042A2F598
:104D10009632830543EA9222072AC0F828C0BDE8EC
:104D2000804007D8012303FA02F212F0E50F1CBFFE
:104D300009690163012141610169C90708BF704721
:104D4000016921F0010101617047000010B540F2D6
:104D50008C0040F26C34C2F20000C2F2000400F198
:104D6000080120460E22FEF74FFE20681021016246
:104D7000016841F01001016010BD0000816A0A075E
:104D80000ED4CA0717D18A0720D44A0729D4CA06E5
:104D900032D48A063BD480B54A0644D458E000BFDA
:104DA0000268D0F838C0536823F4004343EA0C0388
:104DB0005360CA07E7D00268D0F82CC0536823F4C8
:104DC000003343EA0C0353608A07DED50268D0F84B
:104DD00030C0536823F4803343EA0C0353604A071E
:104DE000D5D50268D0F834C0536823F4802343EA51
:104DF0000C035360CA06CCD50268D0F83CC0936857
:104E000023F4805343EA0C0393608A06C3D50268F7
:104E1000D0F840C0936823F4005343EA0C03936036
:104E200080B54A0614D50268D0F844C05368BCF572
:104E3000801F23F4801343EA0C03536008D1D2F897
:104E400004C0D0F848E02CF4C00343EA0E035360DA
:104E5000090658BF80BD0168C06C4A6822F4002270
:104E60001043486080BD0000B0B582B00446002009
:104E7000C4F89000FCF7DCFE216805460A681207BA
:104E800037D56FF07E4C20464FF4001100222B46A0
:104E9000CDF800C000F0A0FC50B300BF206850E87F
:104EA000000F216820F0800041E80002DAB120689C
:104EB00050E8000F216820F0800041E8000292B124
:104EC000206850E8000F216820F0800041E80002CF
:104ED0004AB1206850E8000F216820F0800041E8C6
:104EE0000002002ADAD12020C4F8880060E000BF68
:104EF00021680868400761D56FF07E4C20464FF46A
:104F0000800100222B46CDF800C000F065FC00288F
:104F100054D000BF206850E8000F216820F4907042
:104F200041E80002E2B1206850E8000F216820F457
:104F3000907041E800029AB1206850E8000F2168A3
:104F400020F4907041E8000252B1206850E8000F50
:104F5000216820F4907041E80002002ADAD100BFF5
:104F6000206850E8020F216820F0010041E80202A9
:104F7000DAB1206850E8020F216820F0010041E812
:104F8000020292B1206850E8020F216820F001006F
:104F900041E802024AB1206850E8020F216820F07F
:104FA000010041E80202002ADAD12020C4F88C0076
:104FB0000320002184F8841002B0B0BD2020C4F882
:104FC0008800C4F88C000020E0662067002184F887
:104FD000841002B0B0BD0000806A0021A0F85E100D
:104FE000FEF724BE806A0268D0F88830D0F88CC002
:104FF0009168090653D5212B51D10021A0F85610F4
:10500000016851E8001F026821F0C00142E8001366
:10501000BBB3016851E8001F026821F0C00142E8FB
:10502000001373B3016851E8001F026821F0C0014A
:1050300042E800132BB3016851E8001F026821F019
:10504000C00142E80013002BDAD11AE0016851E8F0
:10505000021F026821F4000142E80213DBB101687B
:1050600051E8021F026821F4000142E8021393B1E3
:10507000016851E8021F026821F4000142E80213AE
:105080004BB1016851E8021F026821F4000142E8B7
:105090000213002BDAD12021C0F888100268916831
:1050A000490640F18480BCF1220F40F0808000214D
:1050B000A0F85E10016851E8001F026821F49071A9
:1050C00042E80013DBB1016851E8001F026821F4D7
:1050D000907142E8001393B1016851E8001F026823
:1050E00021F4907142E800134BB1016851E8001FB0
:1050F000026821F4907142E80013002BDAD14FF6D8
:10510000FE7CCEF6FF7C00BF026852E8022F0368E7
:1051100002EA0C0243E80221D9B1016851E8021FFA
:10512000026801EA0C0142E8021393B1016851E8F8
:10513000021F026801EA0C0142E802134BB1016848
:1051400051E8021F026801EA0C0142E80213002B39
:10515000DAD1C16E012924D1016851E8001F02682B
:1051600021F0100142E80013DBB1016851E8001F93
:10517000026821F0100142E8001393B1016851E880
:10518000001F026821F0100142E800134BB10168D2
:1051900051E8001F026821F0100142E80013002BC3
:1051A000DAD12021C0F88C100021C1664167D0F807
:1051B000901041F01001C0F89010FEF737BD0000CC
:1051C0000168806A0968890600F1A1800021A0F8C1
:1051D0005E1000BF016851E8001F026821F4807171
:1051E00042E80013E3B1016851E8001F026821F4AE
:1051F000807142E800139BB1016851E8001F02680A
:1052000021F4807142E8001353B1016851E8001F96
:10521000026821F4807142E80013002BDAD100BF4C
:10522000016851E8021F026821F0010142E80213FF
:10523000BBB3016851E8021F026821F0010142E896
:10524000021373B3016851E8021F026821F00101E3
:1052500042E802132BB3016851E8021F026821F0F3
:10526000010142E80213002BDAD11AE0016851E88B
:10527000021F026821F0400142E80213DBB101681D
:1052800051E8021F026821F0400142E8021393B185
:10529000016851E8021F026821F0400142E8021350
:1052A0004BB1016851E8021F026821F0400142E859
:1052B0000213002BDAD12021C0F88C10C16E012915
:1052C00025D100BF016851E8001F026821F01001DC
:1052D00042E80013DBB1016851E8001F026821F0C9
:1052E000100142E8001393B1016851E8001F026801
:1052F00021F0100142E800134BB1016851E8001F92
:10530000026821F0100142E80013002BDAD10021DD
:105310000167C16E012918BFFFF7D6B8B0F85C105D
:10532000FEF7BEBB806A01210167C16E012918BF6B
:10533000FFF7CCB8B0F85C104908FEF7B1BB00002D
:105340000168806A0968890648BFFFF729B900210A
:10535000A0F85610016851E8021F026821F0800190
:1053600042E8021383B3016851E8021F026821F08A
:10537000800142E802133BB3016851E8021F026852
:1053800021F0800142E80213F3B1016851E8021FE5
:10539000026821F0800142E80213002BDAD113E009
:1053A000016851E8001F026841F0400142E8001323
:1053B000002B08BF7047016851E8001F026841F0E8
:1053C000400142E8001393B1016851E8001F0268F0
:1053D00041F0400142E800134BB1016851E8001F61
:1053E000026841F0400142E80013002BD8D1704719
:1053F000806AFFF7E3B8000070B5054605F10804C0
:105400001ECC0068194341EA0403EE69046846F6BD
:10541000F311CCF6FF71214019433143016041681B
:1054200048F2000C21F4405111434160AA69C4F2D2
:10543000000C60451CBF296A0A4381684FF2FF4394
:10544000C1F2FF13194011438160C16AD5F824E00D
:1054500021F00F0141EA0E01C16244F6FF31C4F2AE
:10546000000188424FF0100314DD44F60041C4F2FD
:105470000001884222D0604528D043F60001C4F2E2
:105480000101884238D141F28801C4F202010B685F
:105490007BA22DE044F20041C4F2000188421DD0FD
:1054A00044F60001C4F20001884225D141F288018E
:1054B000C4F2020109680B0916E000BF41F288013D
:1054C000C4F2020109688B090EE000BF41F28801B5
:1054D000C4F2020109688B0A06E000BF41F28801AC
:1054E000C4F2020109688B0849F2DC42C0F60002EE
:1054F00003F0030152F82130604542F20040C0F24F
:10550000F40015D0B6F5004F22D1082B4FF0010161
:1055100000F2AD80DFE803F0065C6AAB60ABABABDA
:10552000680000BFFCF796FF002840F059809AE021
:10553000082B4FF0010100F29A80DFE803F0059894
:1055400025981B9898982300FCF784FFB0B98AE04F
:10555000082B4FF0010100F28A80DFE803F00563B9
:105560006F88678888886D00FCF774FF002860D119
:1055700079E000BFFCF79AFF002874D0D5F824E04A
:1055800002E000BF4FF4004047F2B441C0F6000112
:1055900031F81E106A68B0FBF1F002EB420188425C
:1055A0004FF0010163D31303984260D8010E00024B
:1055B00010EB520041F100010023FAF729FE4FF6EB
:1055C0000052A0F54071C0F20F02914249D34DE064
:1055D000FCF756FF20B946E0FCF768FF002842D0F0
:1055E000D5F824E002E000BF4FF4004047F2B44198
:1055F000C0F6000131F81E106A68B0FBF1F05108E6
:1056000001EB4000B0FBF2F04FF6EF72A0F1100199
:1056100091422BD84FF6F0710140C0F3420008448C
:105620001FE000BFFCF72CFF18B91CE0FCF73EFFA1
:10563000C8B1D5F824E001E04FF4004047F2B4418E
:10564000C0F6000131F81E104FF6EF72B0FBF1F01A
:10565000696800EB5100B0FBF1F0A0F1100191423C
:1056600004D82968C860002101E000BF01214FF083
:105670000110A866002208466A67AA6770BD00BFCD
:10568000010000000400000002000000080000000B
:10569000B0B513460A46816500210446A0F85C3087
:1056A000C0F890102220C4F88C00D4F88000E8B133
:1056B00044F6E575C0F600054563256845F2C11C52
:1056C00045F2253EC0F6000CC0F6000E816305F1E0
:1056D0002401C0E90BCEFBF72FFD38B11020C4F830
:1056E00090002020C4F88C000120B0BD206928B3B0
:1056F000206850E8000F216840F4807041E8000203
:10570000E2B1206850E8000F216840F4807041E861
:1057100000029AB1206850E8000F216840F48070C0
:1057200041E8000252B1206850E8000F216840F4BF
:10573000807041E80002002ADAD100BF206850E8FA
:10574000020F216840F0010041E80202BAB320686C
:1057500050E8020F216840F0010041E8020272B3F4
:10576000206850E8020F216840F0010041E8020281
:105770002AB3206850E8020F216840F0010041E898
:105780000202002ADAD11AE0206850E8020F2168EC
:1057900040F0400041E80202DAB1206850E8020F10
:1057A000216840F0400041E8020292B1206850E8D0
:1057B000020F216840F0400041E802024AB120682F
:1057C00050E8020F216840F0400041E80202002A40
:1057D000DAD10020B0BD00002DE9F041804600681C
:1057E0001546C2690E461140891BB1FA81F149097B
:1057F000A94223D1069C2CB3611C29D1C169314037
:10580000891BB1FA81F14909A94217D1C169314017
:10581000891BB1FA81F14909A9420FD1C16931400F
:10582000891BB1FA81F14909A94207D1C169314007
:10583000891BB1FA81F14909A942DFD00020BDE8F6
:10584000F08100BFFCF7F4F90320BDE8F08100BF50
:105850001F4607E0C0693040801BB0FA80F0400965
:10586000A842EBD1FCF7E4F9C01BA04200F2AE80E5
:10587000D8F8000001684907ECD5402EEAD0802E08
:10588000E8D0C169090700F1A580C1690905E1D522
:105890004FF400610162D8F8000050E8000FD8F81A
:1058A000001020F4907041E800020AB3D8F800001C
:1058B00050E8000FD8F8001020F4907041E8000282
:1058C000B2B1D8F8000050E8000FD8F8001020F46A
:1058D000907041E800025AB1D8F8000050E8000F7B
:1058E000D8F8001020F4907041E80002002AD2D1CC
:1058F0004FF6FE70CEF6FF70D8F8001051E8021F88
:10590000D8F80020014042E80213F3B1D8F80010A3
:1059100051E8021FD8F80020014042E80213A3B169
:10592000D8F8001051E8021FD8F80020014042E8E2
:10593000021353B1D8F8001051E8021FD8F8002024
:10594000014042E80213002BD6D1D8F86C000128A0
:105950002CD1D8F8000050E8000FD8F8001020F043
:10596000100041E800020AB3D8F8000050E8000F28
:10597000D8F8001020F0100041E80002B2B1D8F8C9
:10598000000050E8000FD8F8001020F0100041E8A7
:1059900000025AB1D8F8000050E8000FD8F8001003
:1059A00020F0100041E80002002AD2D1202000217E
:1059B000C8F88C00C8F86C10C8F87410C8F89000CB
:1059C000032088F88410BDE8F08100BF0320BDE803
:1059D000F08100BF08210162D8F8000050E8000FF4
:1059E000D8F8001020F4907041E800020AB3D8F80B
:1059F000000050E8000FD8F8001020F4907041E843
:105A00000002B2B1D8F8000050E8000FD8F800103A
:105A100020F4907041E800025AB1D8F8000050E834
:105A2000000FD8F8001020F4907041E80002002A1E
:105A3000D2D14FF6FE70CEF6FF70D8F8001051E8C4
:105A4000021FD8F80020014042E80213F3B1D8F851
:105A5000001051E8021FD8F80020014042E802136C
:105A6000A3B1D8F8001051E8021FD8F80020014077
:105A700042E8021353B1D8F8001051E8021FD8F8D9
:105A80000020014042E80213002BD6D1D8F86C0068
:105A900001282CD1D8F8000050E8000FD8F80010E9
:105AA00020F0100041E800020AB3D8F8000050E8E6
:105AB000000FD8F8001020F0100041E80002B2B149
:105AC000D8F8000050E8000FD8F8001020F01000BF
:105AD00041E800025AB1D8F8000050E8000FD8F8A9
